027872694024232198601010000C+44917-123000SAO  +0060SLE  V0201501N00311002101MN0032001N1+00391+00001101991ADDAA101000095AA206999929AG10001GA1999+002135135GA2999+005795055GD13991+0021099GD24991+0057099GF108991999071999999021999KA1999M+00391MA1101961999999MD1710141+9999MW1455MW2515REMAWY040LB30 71400 172/ 39     ?    RADAT 98035?EQDN01 03370JPWTH 0QNNH11 0 13007H11 0 22019N21 0 03370
014572694024232198601010100C+44917-123000SAO  +0060SLE  V0203101N00151002101MN0032001N1+00331-00211101951ADDAA101000095AG10999GD13991+0021099GD24991+0057099GF108991999999999999999999MA1101931999999MW1455REMAWY005LE15?EQDN01 07000JPWTH 0QNNN21 0 07000
014672694024232198601010200C+44917-123000SAO  +0060SLE  V0201501N003610075019N0032001N1+00391-00051101881ADDAA101000095AG10999GD12991+0021099GD23991+0075099GD34991+0210099GF108991999999999999999999MA1101861999999MW1455EQDN01 07000JPWTH 0QNNN21 0 07000
0102726940242321986010102124+44917-123000SAOSP+0061SLE  V0201801N003110210019N0048001N1+99999+99999999999ADDAG10999GD12991+0021099GD22991+0078099GD34991+0210099GF108991999999999999999999MA1101861999999MW1451
023072694024232198601010300C+44917-123000SAO  +0060SLE  V0201801N005710210019N0080001N1+00441-00101101831ADDAA101000095AG10007GA1999+007925065GA2999+021345045GD12991+0078099GD24991+0210099GF108991999051999999021999MA1101831999999MD1710151+9999MW1455MW2615REMAWY016RB45 71500 152/?EQDN01 02070JPWTH 0QNNH11 0 15026H11 0 21070N21 0 02070
013172694024232198601010400C+44917-123000SAO  +0060SLE  V0201701N004110150019N0160001N1+00611-00051101781ADDAA101000095AG10999GD12991+0078099GD24991+0150099GF108991999999999999999999MA1101761999999MW1615EQDN01 02000JPWTH 0QNNN21 0 02000
016072694024232198601010500C+44917-123000SAO  +0060SLE  V0201601N004610132019N0240001N1+00611-00051101701ADDAA101000095AG10999GD12991+0078099GD23991+0132099GD34991+0210099GF108991999999999999999999MA1101691999999MW1001REMAWY005RE25?EQDN01 00000JPWTH 0QNNN21 0 00000
019072694024232198601010600D+44917-123000SAO  +0061SLE  V0201601N005710141019N0112001N1+00611-00051101631ADDAA101000095AA206999929AG10007GD12991+0033099GD22991+0075099GD34991+0141099GF108991999051999999999999KA1999M+00611MA1101631999999MD1710191+9999MW1611REMAWY030RB35 71900       ?    15// 43?
011372694024232198601010700D+44917-123000SAO  +0061SLE  V0201601N006210141019N0112001N1+00611-00051101501ADDAA101000395AG10999GD12991+0033099GD22991+0075099GD34991+0141099GF108991999999999999999999MA1101491999999MW1611
011372694024232198601010800D+44917-123000SAO  +0061SLE  V0201501N006210054019N0112001N1+00611-00051101401ADDAA101000895AG10999GD12991+0030099GD23991+0054099GD34991+0120099GF108991999999999999999999MA1101391999999MW1611
007972694024232198601010800E+44917-123000SAO  +0060SLE  V02099999999999999999N999999999+99999+99999999999ADDAA101000895GD14995+9999999MW1615EQDN01 02000JPWTH 0QNNE81 0 00699N21 0 02000
028872694024232198601010900C+44917-123000SAO  +0060SLE  V0201705N006250057959N0112005N1+00725-00065101265ADDAA101000595AA299002091AG10000GD12025+0036099GD23035+0057099GD34025+0105099GF108085999071999999999999MA1101251100515MD1710371+9999MW1001REMAWY017RE45/ 73706 17//?QNNE81 0 00203E81 0 00404E81 0 00603G21 0 00019K21 0 00031L21 0 00700M11 0 29680Q21 0 10126S21 0 00045V11 0 01010X21 0 17012
024572694024232198601011000C+44917-123000SAO  +0060SLE  V0201705N007750085359N0160005N1+00785-00175101105ADDAA101000095AG10999GD12995+0054099GD23995+0084099GD34995+0180099GF108085999999999999999999MA1101081100345MW1001OC101031QNNE81 0 00299E81 0 00499E81 0 00699G21 0 00028K21 0 00029L21 0 01000M11 0 29630Q21 0 10110S21 0 00046V11 0 01010X21 0 17015
029072694024232198601011100C+44917-123000SAO  +0060SLE  V0201705N008850085359N0160005N1+00835+00726100985ADDAA101000395AG10999GD12995+0033099GD23995+0084099GD34995+0150099GF108085999999999999999999MA1100981100245MW1611OC101241REMAWY036RB05 BKN V       ?    OVC R VRY LGT?QNNE81 0 00299E81 0 00499E81 0 00699G21 0 00028K21 0 00045L21 0 01000M11 0 29600Q21 0 10098S21 0 00047V11 0 01010X21 0 17017
031572694024232198601011200C+44917-123000SAO  +0060SLE  V0201805N007750076259N0112005N1+00895+00675100985ADDAA101002895AA206005091AA324005091AG10007GD12025+0030099GD24085+0075099GF108085999071999999021999KA1999N+00331MA1100981100245MD1610271+9999MW1611REMAWY04662718 172/ 38 20018          ?    RADAT 98057?QNNE81 0 00202E81 0 00610G21 0 00025K21 0 00044L21 0 00700M11 0 29600Q21 0 10098S21 0 00048V11 0 01010X21 0 18015
021172694024232198601011300C+44917-123000SAO  +0060SLE  V0201905N010850079259N0112005N1+00835+00615101025ADDAA101003095AG10999GD12995+0030099GD24995+0078099GF108085999999999999999999MA1101021100275MW1611QNNE81 0 00299E81 0 00699G21 0 00026K21 0 00043L21 0 00700M11 0 29610Q21 0 10102S21 0 00047V11 0 01010X21 0 19021
0121726940242321986010113254+44917-123000SAOSP+0061SLE  V0202101N006710120019N0240001N1+99999+99999999999ADDAG10999GD12991+0075099GD23991+0120099GD34991+0210099GF108991999999999999999999MA1101081999999MW1611REMAWY010R VRY LGT?
021172694024232198601011400C+44917-123000SAO  +0060SLE  V0201905N007750106759N0160005N1+00835+00615101155ADDAA101001395AG10999GD12995+0078099GD24995+0105099GF108085999999999999999999MA1101151100415MW1611QNNE81 0 00299E81 0 00699G21 0 00035K21 0 00043L21 0 01000M11 0 29650Q21 0 10115S21 0 00047V11 0 01010X21 0 19015
026472694024232198601011500C+44917-123000SAO  +0060SLE  V0201905N006250121959N0160005N1+00835+00675101335ADDAA101001395AA299006091AG10007GD12025+0078099GD24085+0120099GF108085999071999999021999MA1101321100585MD1310341+9999MW1611OC100981REMAWY01133422 172/?QNNE81 0 00203E81 0 00610G21 0 00040K21 0 00044L21 0 01000M11 0 29700Q21 0 10133S21 0 00047V11 0 01010X21 0 19012
029572694024232198601011600C+44917-123000SAO  +0060SLE  V0201105N003652200059N0400005N1+00785+00615101545ADDAA101000095AG10999GD12995+0030099GD22995+0069099GD32995+0105099GD42995+0300099GF103035999999999999999999MA1101521100785MW1001REMAWY023RE12       ?    PRESRR?QNNE81 0 00299E81 0 00299E81 0 00299E81 0 00299G21U0 99999K21 0 00043L21 0 02500M11 0 29760Q21 0 10154S21 0 00046V11 0 00404X21 0 11007
019872694024232198601011700E+44917-123000SAO  +0060SLE  V0201305N005250091459N056000599+00725+00615101745ADDAA101000095GD12995+9999999GD23995+9999999GF105055999999999999999999MA1999999100985QNNE81 0 00299E81 0 00499G21 0 00030K21 0 00043L21 0 03500M11 0 29820Q21 0 10174S21 0 00045V11 0 00606X21 0 13010
027272694024232198601011800C+44917-123000SAO  +0060SLE  V0201605N005250091459N0560005N1+00725+00565101895ADDAA101000095AA206006091AG10000GD12025+0045099GD23035+0090099GF105045999051999999001991KA1999N+00171MA1101861101125MD1110541+9999MW1001REMAWY01415422 1500 35?QNNE81 0 00202E81 0 00404G21 0 00030K21 0 00042L21 0 03500M11 0 29860Q21 0 10189S21 0 00045V11 0 00605X21 0 16010
021172694024232198601011900C+44917-123000SAO  +0060SLE  V0202505N004650091459N0560005N1+00945+00445102015ADDAA101000095AG10999GD12995+0045099GD23995+0090099GF106065999999999999999999MA1102001101255MW1001QNNE81 0 00299E81 0 00499G21 0 00030K21 0 00040L21 0 03500M11 0 29900Q21 0 10201S21 0 00049V11 0 00807X21 0 25009
022672694024232198601012000C+44917-123000SAO  +0060SLE  V0202805N004650091459N0320005N1+00945+00395102085ADDAA101000095AG10999GD12995+0045099GD23995+0090099GF106065999999999999999999MA1102071101325MW1001REMAWY006RWU E?QNNE81 0 00299E81 0 00499G21 0 00030K21 0 00039L21 0 02000M11 0 29920Q21 0 10208S21 0 00049V11 0 00807X21 0 28009
023872694024232198601012100C+44917-123000SAO  +0060SLE  V0202205N00775010675MN0320005N1+01065+00395102135ADDAA101000095AG10000GD13055+0105099GF105045999021999999001991MA1102071101355MD1110241+9999MW1001REMAWY030MDT CU N AND E RWU E 124 1200?QNNE81 0 00406G21 0 00035K21 0 00039L21 0 02000M11 0 29930Q21 0 10213S21 0 00051V11 0 00605X21 0 22015
020772694024232198601012200C+44917-123000SAO  +0060SLE  V0202405N005752200059N0320005N1+01065+00175102165ADDAA101000095AG10999GD12995+0105099GF102025999999999999999999MA1102131101395MW1001REMAWY013MDT CU RWU E?QNNE81 0 00299G21U0 99999K21 0 00035L21 0 02000M11 0 29940Q21 0 10216S21 0 00051V11 0 00303X21 0 24011
021172694024232198601012300C+44917-123000SAO  +0060SLE  V0202105N004650762059N0320005N1+01005+00175102255ADDAA101000095AG10999GD12995+0120099GD23995+0750099GF106055999999999999999999MA1102241101495MW1001QNNE81 0 00299E81 0 00499G21 0 00250K21 0 00035L21 0 02000M11 0 29970Q21 0 10225S21 0 00050V11 0 00806X21 0 21009
037672694024232198601020000C+44917-123000SAO  +0060SLE  V0202205N003650762059N0320005N1+00785+00395102255ADDAA101000095AA206000091AG10000GA1999+012195085GA2999+076205025GD12035+0120099GD23065+0750099GF106045999011999999001991KA1999M+01061MA1102241101495MD1110141+9999MW1001REMAWY034114 1108 51 RADAT      ?    85038?EQDN01 00000JPWTH 0QNNE81 0 00204E81 0 00408G21 0 00250H11 0 11040H11 0 37250K21 0 00039L21 0 02000M11 0 29970N21 0 00000Q21 0 10225S21 0 00046V11 0 00805X21 0 22007
024172694024232198601020100C+44917-123000SAO  +0060SLE  V0201405N002652200059N0240005N1+00565+00395102215ADDAA101000095AG10999GD12995+0120099GD23995+0750093GF106015999999999999999999MA1102201101465MW1001EQDN01 00000JPWTH 0QNNE81 0 00299E81 0 00399G21U0 99999K21 0 00039L21 0 01500M11 0 29960N21 0 00000Q21 0 10221S21 0 00042V11 0 00701X21 0 14005
023172694024232198601020200C+44917-123000SAO  +0060SLE  V0202205N003152200059N0240005N1+00335+00175102215ADDAA101000095AG10999GD11995+0750093GF104015999999999999999999MA1102201101465MW1001REMAWY007FEW SC?EQDN01 00000JPWTH 0QNNE81 0 00199G21U0 99999K21 0 00035L21 0 01500M11 0 29960N21 0 00000Q21 0 10221S21 0 00038V11 0 00501X21 0 22006
032772694024232198601020300C+44917-123000SAO  +0060SLE  V0201405N001552200059N0240005N1+00225+00115102215ADDAA101000095AG10000GA1999+012195065GA2999+076205025GD12015+0120099GD21035+0750093GF104015999051999999001991MA1102201101465MD1610031+9999MW1001REMAWY009603 1508?EQDN01 00000JPWTH 0QNNE81 0 00201E81 0 00104G21U0 99999H11 0 15040H11 0 37250K21 0 00034L21 0 01500M11 0 29960N21 0 00000Q21 0 10221S21 0 00036V11 0 00501X21 0 14003
024172694024232198601020400C+44917-123000SAO  +0060SLE  V0201405N00155010675MN0240005N1+00175+00065102185ADDAA101000095AG10999GD13995+0105099GD23995+0750099GF106045999999999999999999MA1102171101425MW1001EQDN01 00000JPWTH 0QNNE81 0 00499E81 0 00499G21 0 00035K21 0 00033L21 0 01500M11 0 29950N21 0 00000Q21 0 10218S21 0 00035V11 0 00705X21 0 14003
021572694024232198601020500C+44917-123000SAO  +0060SLE  V0201405N00155009145MN0240005N1+00065+00005102105ADDAA101000095AG10999GD13995+0090099GF105055999999999999999999MA1102101101345MW1001EQDN01 00000JPWTH 0QNNE81 0 00499G21 0 00030K21 0 00032L21 0 01500M11 0 29925N21 0 00000Q21 0 10210S21 0 00033V11 0 00606X21 0 14003
030172694024232198601020600C+44917-123000SAO  +0060SLE  V0201405N002152200059N0112005N1+00065+00005102045ADDAA101000095AA206000091AG10000GA1999+007625065GD12025+0075099GF102025999051999999001991KA1999M+01061MA1102031101295MD1810171+9999MW1001REMAWY012817 1500 51?EQDN01 00000JPWTH 0QNNE81 0 00203G21U0 99999H11 0 15025K21 0 00032L21 0 00700M11 0 29910N21 0 00000Q21 0 10204S21 0 00033V11 0 00303X21 0 14004
023372694024232198601020700C+44917-123000SAO  +0060SLE  V0201405N001552200059N0112005N1-00115-00175101955ADDAA101000095AG10999GD12995+0075099GF102025999999999999999999MA1101931101195MW1001REMAWY009PTCHY FK?EQDN01 00000JPWTH 0QNNE81 0 00299G21U0 99999K21 0 00029L21 0 00700M11 0 29880N21 0 00000Q21 0 10195S21 0 00030V11 0 00303X21 0 14003
022172694024232198601020800C+44917-123000SAO  +0060SLE  V0202805N002152200059N0024005N1-00115-00175101875ADDAA101000095AG10999GD12995+0075099GF102025999999999999999999MA1101861101125MW1045MW2455EQDN01 07080JPWTH 0QNNE81 0 00299G21U0 99999K21 0 00029L21 0 00150M11 0 29860N21 0 07080Q21 0 10187S21 0 00030V11 0 00303X21 0 28004
030172694024232198601020900C+44917-123000SAO  +0060SLE  V02099959000052200059N0004005N1-00115-00115101815ADDAA101000095AG10000ED131U03659GA1999+000005105GD16045+0001599GF104045999999999999999999MA1101801101055MD1710241+9999MW1045MW2455REMAWY019F5 R31VR12V26/ 724?EQDN01 07080JPWTH 0QNNE81 0 00805G21U0 99999H11 0 45000K21 0 00030L21 0 00025M11 0 29840N21 0 07080Q21 0 10181S21 0 00030V11 0 00505X21 0 00000
0098726940242321986010209204+44917-123000SAOSP+0061SLE  V0209991C00001000301WN0002001N1+99999+99999999999ADDAG10000GD15991+0003099GF109991999999999999999999MA1101761999999MW1041MW2451REMAWY011R31VR06V08?
025272694024232198601021000C+44917-123000SAO  +0060SLE  V0209995900005000005WN0001005N1-00065-00115101745ADDAA101000095AG10999ED131U01829GD15995+0001599GF108085999999999999999999MA1101731100985MW1045MW2455REMAWY011R31VR06V14?EQDN01 07080JPWTH 0QNNE81 0 00799G21 0 00000K21 0 00030L21 0 00006M11 0 29820N21 0 07080Q21 0 10174S21 0 00031V11 0 01010X21 0 00000
0143726940242321986010210284+44917-123000SAOSP+0061SLE  V0209991C000012200019N0016001N1+99999+99999999999ADDAG10999ED131U08539GD16991+0001599GD22991+0009099GD32991+0120099GF102991999999999999999999MA1101691999999MW1041MW2451REMAWY015R31VR28V60+ F2?
028572694024232198601021100C+44917-123000SAO  +0060SLE  V0202205N002650106759N0016005N1+00005+00005101655ADDAA101000095AG10999GD16995+0001599GD22995+0006099GD33995+0105099GF106055999999999999999999MA1101631100885MW1045MW2455REMAWY003F2?EQDN01 07080JPWTH 0QNNE81 0 00899E81 0 00299E81 0 00499G21 0 00035K21 0 00032L21 0 00100M11 0 29790N21 0 07080Q21 0 10165S21 0 00032V11 0 00706X21 0 22005
0119726940242321986010211074+44917-123000SAOSP+0061SLE  V0209991C000010006019N0020001N1+99999+99999999999ADDAG10999GD16991+0001599GD24991+0006099GF108991999999999999999999MA1101631999999MW1041MW2451REMAWY017F3 THN SPTS IOVC?
045872694024232198601021200C+44917-123000SAO  +0060SLE  V02099959000050015259N0032005N1+00005-00065101575ADDAA101000095AA206000091AA324006091AG10000GA1999+000005105GA2999+001525075GA3999+012195065GD16015+0001599GD23045+0015099GD34035+0120099GF108085999061999999999999KA1999N-00281MA1101561100815MD1710241+9999MW1045MW2455REMAWY046F1/ 724 16// 27        ?    20022 RADAT 98044?EQDN01 07080JPWTH 0QNNE81 0 00801E81 0 00405E81 0 00604G21 0 00005H11 0 45000H11 0 16005H11 0 15040K21 0 00031L21 0 00200M11 0 29770N21 0 07080Q21 0 10157S21 0 00032V11 0 01010X21 0 00000
022172694024232198601021300C+44917-123000SAO  +0060SLE  V0209995900005000915MN0032005N1+00005-00065101435ADDAA101000095AG10999GD14995+0009099GF108085999999999999999999MA1101421100685MW1045MW2455EQDN01 07080JPWTH 0QNNE81 0 00699G21 0 00003K21 0 00031L21 0 00200M11 0 29730N21 0 07080Q21 0 10143S21 0 00032V11 0 01010X21 0 00000
024272694024232198601021400C+44917-123000SAO  +0060SLE  V0201605N00465000915MN0080005N1+00225-00285101305ADDAA101000095AG10999GD14995+0009099GF108075999999999999999999MA1101291100545MW1045MW2055REMAWY012BINOVC OVHD?EQDN01 08180JPWTH 0QNNE81 0 00699G21 0 00003K21 0 00027L21 0 00500M11 0 29690N21 0 08180Q21 0 10130S21 0 00036V11 0 01009X21 0 16009
0093726940242321986010214104+44917-123000SAOSP+0061SLE  V0201601N003610135019N0064001N1+99999+99999999999ADDAG10999GD12991+0009099GD23991+0135099GF107991999999999999999999MA1101251999999MW1041MW2051
032772694024232198601021500C+44917-123000SAO  +0060SLE  V0201605N003150152459N0112005N1+00175-00285101235ADDAA101000095AG10000GA1999+001525135GA2999+015245065GD12025+0015099GD24065+0150099GF108085999051999999999999MA1101221100475MD1610341+9999MW1001REMAWY009634 15//?EQDN01 00000JPWTH 0QNNE81 0 00202E81 0 00608G21 0 00050H11 0 13005H11 0 15050K21 0 00027L21 0 00700M11 0 29670N21 0 00000Q21 0 10123S21 0 00035V11 0 01010X21 0 16006
024172694024232198601021600C+44917-123000SAO  +0060SLE  V0201605N00215010675MN0160005N1+00175+00065101135ADDAA101000095AG10999GD13995+0105099GD23995+0750099GF106065999999999999999999MA1101121100375MW1001EQDN01 00000JPWTH 0QNNE81 0 00499E81 0 00499G21 0 00035K21 0 00033L21 0 01000M11 0 29640N21 0 00000Q21 0 10113S21 0 00035V11 0 00808X21 0 16004
030372694024232198601021700C+44917-123000SAO  +0060SLE  V0201705N003650137259N0480005N1+00335+00225101055ADDAA101000095AG10999GD12995+0090099GD23995+0135099GD34995+0750099GF108075999999999999999999MA1101051100305MW1615REMAWY027RB45 BINOVC      ?    NE-E?EQDN01 02000JPWTH 0QNNE81 0 00299E81 0 00499E81 0 00699G21 0 00045K21 0 00036L21 0 03000M11 0 29620N21 0 02000Q21 0 10105S21 0 00038V11 0 01009X21 0 17007
040972694024232198601021800C+44917-123000SAO  +0060SLE  V0201405N00525009145MN0320005N1+00505+00335100995ADDAA101000395AA206000391AG10007GA1999+009145135GA2999+013725065GA3999+027435035GD13055+0090099GD23025+0135099GD34025+0270099GF108085999051999999071999KA1999N-00281MA1100981100245MD1710241+9999MW1615REMAWY01472401 157/ 27?EQDN01 02000JPWTH 0QNNE81 0 00406E81 0 00402E81 0 00602G21 0 00030H11 0 13030H11 0 15045H11 0 23090K21 0 00038L21 0 02000M11 0 29600N21 0 02000Q21 0 10099S21 0 00041V11 0 01010X21 0 14010
029172694024232198601021900C+44917-123000SAO  +0060SLE  V0201405N006250137259N0320005N1+00505+00395100785ADDAA101000595AG10999GD12995+0090099GD23995+0135099GD34995+0270099GF108085999999999999999999MA1100781100035MW1615OC100881REMAWY007PRESFR?EQDN01 02000JPWTH 0QNNE81 0 00299E81 0 00499E81 0 00699G21 0 00045K21 0 00039L21 0 02000M11 0 29540N21 0 02000Q21 0 10078S21 0 00041V11 0 01010X21 0 14012
023472694024232198601022000C+44917-123000SAO  +0060SLE  V0202205N00575010675MN0064005N1+00615+00445100845ADDAA101002395AG10999GD14995+0105099GF108085999999999999999999MA1100851100105MW1615REMAWY010R- OCNL R?EQDN01 02000JPWTH 0QNNE81 0 00699G21 0 00035K21 0 00040L21 0 00400M11 0 29560N21 0 02000Q21 0 10084S21 0 00043V11 0 01010X21 0 22011
030372694024232198601022100C+44917-123000SAO  +0060SLE  V0202005N00625010675MN0064005N1+00675+00445100785ADDAA101002395AA299005091AG10007GA1999+010675055GD14085+0105099GF108085999999999999021999MA1100781100035MD1710201+9999MW1615REMAWY01172020 102/?EQDQ01+000002SCOLCGN01 02000JPWTH 0QNNE81 0 00610G21 0 00035H11 0 22035K21 0 00040L21 0 00400M11 0 29540N21 0 02000Q21 0 10078S21 0 00044V11 0 01010X21 0 20012
023272694024232198601022200C+44917-123000SAO  +0060SLE  V0201805N00525008535MN0112005N1+00725+00565100725ADDAA101000395AG10999GD14995+0084099GF108085999999999999999999MA1100711099975MW1001REMAWY008OCNL R-?EQDN01 00000JPWTH 0QNNE81 0 00699G21 0 00028K21 0 00042L21 0 00700M11 0 29520N21 0 00000Q21 0 10072S21 0 00045V11 0 01010X21 0 18010
023272694024232198601022300C+44917-123000SAO  +0060SLE  V0201605N00575008535MN0080005N1+00725+00565100755ADDAA101002595AG10999GD14995+0084099GF108085999999999999999999MA1100751100005MW1615REMAWY008CIG RGD?EQDN01 02000JPWTH 0QNNE81 0 00699G21 0 00028K21 0 00042L21 0 00500M11 0 29530N21 0 02000Q21 0 10075S21 0 00045V11 0 01010X21 0 16011
041072694024232198601030000C+44917-123000SAO  +0060SLE  V0201905N006750152459N0112005N1+00725+00445100755ADDAA101000595AA206008091AG10000GA1999+009755085GA2999+015245085GD12045+0096099GD23015+0150099GF105045999021999999001991KA1999M+00781MA1100751100005MD1710031+9999MW1001OC100881REMAWY060RE45 MDT CU RWU ALQDS        ?    70333 1200 46 RADAT 97037?EQDN01 00000JPWTH 0QNNE81 0 00205E81 0 00401G21 0 00050H11 0 11032H11 0 11050K21 0 00040L21 0 00700M11 0 29530N21 0 00000Q21 0 10075S21 0 00045V11 0 00605X21 0 19013
0119726940242321986010300084+44917-123000SAOSP+0061SLE  V0202001N007710135019N0112001N1+99999+99999999999ADDAG10007GD12991+0090099GD23991+0135099GF107991999999999999999999MA1100811999999MW1611OC101031REMAWY015RB05 TCU ALQDS?
025572694024232198601030100C+44917-123000SAO  +0060SLE  V0201505N004150106759N0112005N1+00675+00505100885ADDAA101000095AG10999GD12995+0081099GD24995+0105099GF108085999999999999999999MA1100881100145MW1615REMAWY005RB05?EQDN01 02000JPWTH 0QNNE81 0 00299E81 0 00699G21 0 00035K21 0 00041L21 0 00700M11 0 29570N21 0 02000Q21 0 10088S21 0 00044V11 0 01010X21 0 15008
025572694024232198601030200C+44917-123000SAO  +0060SLE  V0201905N007250106759N0240005N1+00675+00445100955ADDAA101000595AG10999GD12995+0081099GD23995+0105099GF107075999999999999999999MA1100951100205MW1001REMAWY005RE15?EQDN01 00000JPWTH 0QNNE81 0 00299E81 0 00499G21 0 00035K21 0 00040L21 0 01500M11 0 29590N21 0 00000Q21 0 10095S21 0 00044V11 0 00909X21 0 19014
028772694024232198601030300C+44917-123000SAO  +0060SLE  V0201805N006252200059N0240005N1+00615+00395101015ADDAA101000095AA299000591AG10000GA1999+012195065GD12025+0120099GF102025999051999999999999MA1101021100275MD1210271+9999MW1001REMAWY01122702 15//?EQDN01 00000JPWTH 0QNNE81 0 00203G21U0 99999H11 0 15040K21 0 00039L21 0 01500M11 0 29610N21 0 00000Q21 0 10101S21 0 00043V11 0 00303X21 0 18012
025572694024232198601030400C+44917-123000SAO  +0060SLE  V0201705N006750106759N0240005N1+00675+00445101115ADDAA101000095AG10999GD12995+0081099GD24995+0105099GF108085999999999999999999MA1101121100375MW1805REMAWY005RB07?EQDN01 02300JPWTH 0QNNE81 0 00299E81 0 00699G21 0 00035K21 0 00040L21 0 01500M11 0 29640N21 0 02300Q21 0 10111S21 0 00044V11 0 01010X21 0 17013
029372694024232198601030500C+44917-123000SAO  +0060SLE  V0201705N007750106759N0240005N1+00615+00395101185ADDAA101000095AG10999GD12995+0081099GD23995+0105099GD33995+0150099GD44995+0330099GF108085999999999999999999MA1101191100445MW1805EQDN01 02300JPWTH 0QNNE81 0 00299E81 0 00499E81 0 00499E81 0 00699G21 0 00035K21 0 00039L21 0 01500M11 0 29660N21 0 02300Q21 0 10118S21 0 00043V11 0 01010X21 0 17015
036472694024232198601030600C+44917-123000SAO  +0060SLE  V0201805N008850106759N0240005N1+00675+00395101285ADDAA101001595AA206002091AG10004GA1999+007625065GA2999+010675065GD12035+0075099GD24055+0105099GF108085999051999999999999KA1999M+00781MA1101291100545MD1210271+9999MW1805OC101131REMAWY01422708 15// 46?EQDN01 02300JPWTH 0QNNE81 0 00204E81 0 00606G21 0 00035H11 0 15025H11 0 15035K21 0 00039L21 0 01500M11 0 29690N21 0 02300Q21 0 10128S21 0 00044V11 0 01010X21 0 18017
026772694024232198601030700C+44917-123000SAO  +0060SLE  V0201805N010350109759N0240005N1+00675+00505101375ADDAA101001395AG10999GD12995+0084099GD23995+0108099GD34995+0240099GF108085999999999999999999MA1101351100615MW1805EQDN01 02300JPWTH 0QNNE81 0 00299E81 0 00499E81 0 00699G21 0 00036K21 0 00041L21 0 01500M11 0 29710N21 0 02300Q21 0 10137S21 0 00044V11 0 01010X21 0 18020
024172694024232198601030800C+44917-123000SAO  +0060SLE  V0201705N00625009145MN0112005N1+00675+00505101475ADDAA101000395AG10999GD13995+0090099GD24995+0240099GF108085999999999999999999MA1101461100715MW1805EQDN01 02300JPWTH 0QNNE81 0 00499E81 0 00699G21 0 00030K21 0 00041L21 0 00700M11 0 29740N21 0 02300Q21 0 10147S21 0 00044V11 0 01010X21 0 17012
035472694024232198601030900C+44917-123000SAO  +0060SLE  V0201705N00725010675MN0112005N1+00675+00505101565ADDAA101001095AA299003091AG10000GA1999+010675065GA2999+021345035GD13065+0105099GD24025+0210099GF108085999051999999071999MA1101561100815MD1210271+9999MW1001OC100981REMAWY017RE45/ 22710 157/?EQDN01 00000JPWTH 0QNNE81 0 00407E81 0 00603G21 0 00035H11 0 15035H11 0 23070K21 0 00041L21 0 00700M11 0 29770N21 0 00000Q21 0 10156S21 0 00044V11 0 01010X21 0 17014
028372694024232198601031000C+44917-123000SAO  +0060SLE  V0201505N006250143359N0160005N1+00615+00505101655ADDAA101000095AG10999GD12995+0096099GD23995+0141099GD34995+0210099GF108085999999999999999999MA1101661100905MW1001REMAWY007BINOVC?EQDN01 00000JPWTH 0QNNE81 0 00299E81 0 00499E81 0 00699G21 0 00047K21 0 00041L21 0 01000M11 0 29795N21 0 00000Q21 0 10165S21 0 00043V11 0 01010X21 0 15012
025572694024232198601031100C+44917-123000SAO  +0060SLE  V0201605N00625007325MN0160005N1+00675+00445101835ADDAA101000095AG10999GD13995+0072099GD24995+0120099GF108085999999999999999999MA1101831101085MW1805REMAWY005RB15?EQDN01 02300JPWTH 0QNNE81 0 00499E81 0 00699G21 0 00024K21 0 00040L21 0 01000M11 0 29850N21 0 02300Q21 0 10183S21 0 00044V11 0 01010X21 0 16012
039972694024232198601031200C+44917-123000SAO  +0060SLE  V0201705N007750167659N0240005N1+00615+00505101905ADDAA101000095AA206003091AA324013091AG10000GA1999+007325065GA2999+016765065GD12025+0072099GD24065+0150099GF108075999051999999999999KA1999N+00611MA1101901101155MD1110341+9999MW1001REMAWY046RE40 13410 15// 43     ?    20052 RADAT 98040?EQDN01 00000JPWTH 0QNNE81 0 00202E81 0 00608G21 0 00055H11 0 15024H11 0 15055K21 0 00041L21 0 01500M11 0 29870N21 0 00000Q21 0 10190S21 0 00043V11 0 01009X21 0 17015
026772694024232198601031300C+44917-123000SAO  +0060SLE  V0201605N006750143359N0240005N1+00615+00445102015ADDAA101000095AG10999GD12995+0075099GD23995+0141099GD34995+0210099GF108085999999999999999999MA1102001101255MW1001EQDN01 00000JPWTH 0QNNE81 0 00299E81 0 00499E81 0 00699G21 0 00047K21 0 00040L21 0 01500M11 0 29900N21 0 00000Q21 0 10201S21 0 00043V11 0 01010X21 0 16013
028172694024232198601031400C+44917-123000SAO  +0060SLE  V0201605N006750121959N0160005N1+00675+00505102105ADDAA101000095AG10999GD12995+0066099GD23995+0120099GD34995+0180099GF108085999999999999999999MA1102101101355MW1805REMAWY005RB00?EQDN01 02300JPWTH 0QNNE81 0 00299E81 0 00499E81 0 00699G21 0 00040K21 0 00041L21 0 01000M11 0 29930N21 0 02300Q21 0 10210S21 0 00044V11 0 01010X21 0 16013
040472694024232198601031500C+44917-123000SAO  +0060SLE  V0201805N005250109759N0160005N1+00675+00505102175ADDAA101000095AG10004GA1999+006715135GA2999+010975065GA3999+016765065GD12015+0066099GD23065+0108099GD34025+0150099GF108085999051999999999999MA1102171101425MD1210271+9999MW1805REMAWY033RE10B48          ?    22700 15//?EQDN01 02300JPWTH 0QNNE81 0 00201E81 0 00407E81 0 00602G21 0 00036H11 0 13022H11 0 15036H11 0 15055K21 0 00041L21 0 01000M11 0 29950N21 0 02300Q21 0 10217S21 0 00044V11 0 01010X21 0 18010
025572694024232198601031600C+44917-123000SAO  +0060SLE  V0201705N005752200059N0160005N1+00565+00395102275ADDAA101000095AG10999GD12995+0081099GD22995+0150099GF102025999999999999999999MA1102271101525MW1001REMAWY005RE25?EQDN01 00000JPWTH 0QNNE81 0 00299E81 0 00299G21U0 99999K21 0 00039L21 0 01000M11 0 29980N21 0 00000Q21 0 10227S21 0 00042V11 0 00202X21 0 17011
024172694024232198601031700C+44917-123000SAO  +0060SLE  V0201405N004150128059N0320005N1+00615+00445102345ADDAA101000095AG10999GD12995+0090099GD23995+0126099GF105045999999999999999999MA1102341101595MW1001EQDN01 00000JPWTH 0QNNE81 0 00299E81 0 00499G21 0 00042K21 0 00040L21 0 02000M11 0 30000N21 0 00000Q21 0 10234S21 0 00043V11 0 00605X21 0 14008
028272694024232198601031800E+44917-123000SAO  +0060SLE  V0201405N004652200059N032000599+00505+00395102455ADDAA101000095GA1999+009145065GA2999+012805065GD12025+9999999GD22015+9999999GF103035999999999999999999MA1999999101695EQDN01 00000JPWTH 0QNNE81 0 00203E81 0 00201G21U0 99999H11 0 15030H11 0 15042K21 0 00039L21 0 02000M11 0 30030N21 0 00000Q21 0 10245S21 0 00041V11 0 00404X21 0 14009
024172694024232198601031900C+44917-123000SAO  +0060SLE  V0201505N005252200059N0320005N1+00895+00565102485ADDAA101000095AG10999GD12995+0090099GD22995+0150099GF102025999999999999999999MA1102471101735MW1001EQDN01 00000JPWTH 0QNNE81 0 00299E81 0 00299G21U0 99999K21 0 00042L21 0 02000M11 0 30040N21 0 00000Q21 0 10248S21 0 00048V11 0 00303X21 0 15010
021572694024232198601032000C+44917-123000SAO  +0060SLE  V0201305N005252200059N0320005N1+01005+00565102455ADDAA101000095AG10999GD12995+0120099GF102025999999999999999999MA1102441101695MW1001EQDN01 00000JPWTH 0QNNE81 0 00299G21U0 99999K21 0 00042L21 0 02000M11 0 30030N21 0 00000Q21 0 10245S21 0 00050V11 0 00202X21 0 13010
027472694024232198601032100C+44917-123000SAO  +0060SLE  V0201405N009852200059N0320005N1+01115+00445102365ADDAA101000095AG10000GA1999+007625085GD12025+0075099GF102025999011999999001991MA1102341101595MD1810101+9999MW1001REMAWY009810 1100?EQDN01 00000JPWTH 0QNNE81 0 00203G21U0 99999H11 0 11025K21 0 00040L21 0 02000M11 0 30000N21 0 00000Q21 0 10236S21 0 00052V11 0 00303X21 0 14019
021572694024232198601032200C+44917-123000SAO  +0060SLE  V0201405N003652200059N0320005N1+01115+00335102285ADDAA101000095AG10999GD12995+0075099GF102025999999999999999999MA1102271101525MW1001EQDN01 00000JPWTH 0QNNE81 0 00299G21U0 99999K21 0 00038L21 0 02000M11 0 29980N21 0 00000Q21 0 10228S21 0 00052V11 0 00303X21 0 14007
021572694024232198601032300C+44917-123000SAO  +0060SLE  V0200905N002652200059N1200005N1+01065+00225102225ADDAA101000095AG10999GD12995+0075099GF103035999999999999999999MA1102201101465MW1001EQDN01 00000JPWTH 0QNNE81 0 00299G21U0 99999K21 0 00036L21 0 07500M11 0 29960N21 0 00000Q21 0 10222S21 0 00051V11 0 00404X21 0 09005
038372694024232198601040000C+44917-123000SAO  +0060SLE  V0200105N003152200059N1200005N1+01005+00175102225ADDAA101000095AA206000091AG10000GA1999+007625085GA2999+076205005GD12015+0075099GD21035+0750093GF104015999011999999001991KA1999M+01171MA1102201101465MD1610141+9999MW1001REMAWY041614 1101 53 RADAT      ?    90L039045073?EQDN01 00000JPWTH 0QNNE81 0 00201E81 0 00104G21U0 99999H11 0 11025H11 0 32250K21 0 00035L21 0 07500M11 0 29960N21 0 00000Q21 0 10222S21 0 00050V11 0 00501X21 0 01006
021572694024232198601040100C+44917-123000SAO  +0060SLE  V0200105N004152200059N0240005N1+00725+00285102225ADDAA101000095AG10999GD11995+0750093GF104005999999999999999999MA1102201101465MW1001EQDN01 00000JPWTH 0QNNE81 0 00199G21U0 99999K21 0 00037L21 0 01500M11 0 29960N21 0 00000Q21 0 10222S21 0 00045V11 0 00500X21 0 01008
021572694024232198601040200C+44917-123000SAO  +0060SLE  V0200105N002652200059N0240005N1+00285+00115102225ADDAA101000095AG10999GD12995+0750099GF104025999999999999999999MA1102201101465MW1001EQDN01 00000JPWTH 0QNNE81 0 00299G21U0 99999K21 0 00034L21 0 01500M11 0 29960N21 0 00000Q21 0 10222S21 0 00037V11 0 00503X21 0 01005
027472694024232198601040300C+44917-123000SAO  +0060SLE  V02099959000052200059N0240005N1+00115+00005102255ADDAA101000095AG10000GA1999+076205005GD12045+0750099GF104035999001999999001991MA1102241101495MD1310031+9999MW1001REMAWY009303 1001?EQDN01 00000JPWTH 0QNNE81 0 00205G21U0 99999H11 0 32250K21 0 00032L21 0 01500M11 0 29970N21 0 00000Q21 0 10225S21 0 00034V11 0 00504X21 0 00000
021572694024232198601040400C+44917-123000SAO  +0060SLE  V0202905N002652200059N0160005N1+00065+00005102225ADDAA101000095AG10999GD12995+0750099GF103025999999999999999999MA1102201101465MW1001EQDN01 00000JPWTH 0QNNE81 0 00299G21U0 99999K21 0 00032L21 0 01000M11 0 29960N21 0 00000Q21 0 10222S21 0 00033V11 0 00403X21 0 29005
021572694024232198601040500C+44917-123000SAO  +0060SLE  V0202905N003152200059N0160005N1+00065+00005102185ADDAA101000095AG10999GD12995+0750099GF103025999999999999999999MA1102171101425MW1001EQDN01 00000JPWTH 0QNNE81 0 00299G21U0 99999K21 0 00032L21 0 01000M11 0 29950N21 0 00000Q21 0 10218S21 0 00033V11 0 00403X21 0 29006
030172694024232198601040600C+44917-123000SAO  +0060SLE  V0202905N001552200059N0160005N1+00115+00065102155ADDAA101000095AA206000091AG10000GA1999+076205005GD12025+0750099GF102025999001999999001991KA1999M+01001MA1102131101395MD1710101+9999MW1001REMAWY012710 1001 50?EQDN01 00000JPWTH 0QNNE81 0 00203G21U0 99999H11 0 32250K21 0 00033L21 0 01000M11 0 29940N21 0 00000Q21 0 10215S21 0 00034V11 0 00303X21 0 29003
021572694024232198601040700C+44917-123000SAO  +0060SLE  V0203005N002152200059N0160005N1+00175+00115102155ADDAA101000095AG10999GD11995+0750093GF102005999999999999999999MA1102131101395MW1001EQDN01 00000JPWTH 0QNNE81 0 00199G21U0 99999K21 0 00034L21 0 01000M11 0 29940N21 0 00000Q21 0 10215S21 0 00035V11 0 00200X21 0 30004
020072694024232198601040800C+44917-123000SAO  +0060SLE  V0203005N001552200059N0160005N1+00175+00065102085ADDAA101000095AG10999GF100005999999999999999999MA1102071101325MW1001EQDN01 00000JPWTH 0QNNE81 0 00099G21U0 99999K21 0 00033L21 0 01000M11 0 29920N21 0 00000Q21 0 10208S21 0 00035V11 0 00000X21 0 30003
027472694024232198601040900C+44917-123000SAO  +0060SLE  V0203005N001552200059N0160005N1+00005-00065102065ADDAA101000095AG10000GA1999+076205025GD11035+0750093GF103015999001999999001991MA1102071101305MD1810081+9999MW1001REMAWY009808 1005?EQDN01 00000JPWTH 0QNNE81 0 00104G21U0 99999H11 0 37250K21 0 00031L21 0 01000M11 0 29915N21 0 00000Q21 0 10206S21 0 00032V11 0 00401X21 0 30003
021572694024232198601041000C+44917-123000SAO  +0060SLE  V0203105N001552200059N0160005N1-00115-00225102055ADDAA101000095AG10999GD11995+0750093GF104015999999999999999999MA1102031101295MW1001EQDN01 00000JPWTH 0QNNE81 0 00199G21U0 99999K21 0 00028L21 0 01000M11 0 29910N21 0 00000Q21 0 10205S21 0 00030V11 0 00501X21 0 31003
021572694024232198601041100C+44917-123000SAO  +0060SLE  V0203005N002652200059N0160005N1+00065-00115101985ADDAA101000095AG10999GD11995+0750093GF102005999999999999999999MA1102001101245MW1001EQDN01 00000JPWTH 0QNNE81 0 00199G21U0 99999K21 0 00030L21 0 01000M11 0 29895N21 0 00000Q21 0 10198S21 0 00033V11 0 00300X21 0 30005
031372694024232198601041200C+44917-123000SAO  +0060SLE  V0203105N002652200059N0160005N1+00005-00175101915ADDAA101000095AA206000091AG10000GA1999+076205025GD11025+0750093GF102005999001999999001991KA1999N-00111MA1101931101175MD1810141+9999MW1001REMAWY024814 1008 30 RADAT 20094?EQDN01 00000JPWTH 0QNNE81 0 00102G21U0 99999H11 0 37250K21 0 00029L21 0 01000M11 0 29875N21 0 00000Q21 0 10191S21 0 00032V11 0 00200X21 0 31005
021572694024232198601041300C+44917-123000SAO  +0060SLE  V02099959000052200059N0240005N1-00225-00285101865ADDAA101000095AG10999GD11995+0750093GF103005999999999999999999MA1101861101125MW1001EQDN01 00000JPWTH 0QNNE81 0 00199G21U0 99999K21 0 00027L21 0 01500M11 0 29860N21 0 00000Q21 0 10186S21 0 00028V11 0 00400X21 0 00000
021572694024232198601041400C+44917-123000SAO  +0060SLE  V0203105N002152200059N0240005N1-00285-00445101845ADDAA101000095AG10999GD11995+0750093GF102005999999999999999999MA1101831101085MW1001EQDN01 00000JPWTH 0QNNE81 0 00199G21U0 99999K21 0 00024L21 0 01500M11 0 29850N21 0 00000Q21 0 10184S21 0 00027V11 0 00200X21 0 31004
027472694024232198601041500C+44917-123000SAO  +0060SLE  V0203105N001552200059N0480005N1-00225-00335101765ADDAA101000095AG10000GA1999+076205025GD11025+0750093GF102015999001999999001991MA1101761101025MD1710151+9999MW1001REMAWY009715 1008?EQDN01 00000JPWTH 0QNNE81 0 00103G21U0 99999H11 0 37250K21 0 00026L21 0 03000M11 0 29830N21 0 00000Q21 0 10176S21 0 00028V11 0 00301X21 0 31003
024172694024232198601041600C+44917-123000SAO  +0060SLE  V0203105N002152200059N1200005N1-00115-00225101735ADDAA101000095AG10999GD12995+0480099GD21995+0750093GF102015999999999999999999MA1101731100985MW1001EQDN01 00000JPWTH 0QNNE81 0 00299E81 0 00199G21U0 99999K21 0 00028L21 0 07500M11 0 29820N21 0 00000Q21 0 10173S21 0 00030V11 0 00201X21 0 31004
023172694024232198601041700C+44917-123000SAO  +0060SLE  V0203105N002152200059N1200005N1-00065-00225101735ADDAA101000095AG10999GD11995+0750093GF102005999999999999999999MA1101731100985MW1001REMAWY007FEW AC?EQDN01 00000JPWTH 0QNNE81 0 00199G21U0 99999K21 0 00028L21 0 07500M11 0 29820N21 0 00000Q21 0 10173S21 0 00031V11 0 00200X21 0 31004
035472694024232198601041800C+44917-123000SAO  +0060SLE  V0203405N004152200059N1200005N1+00335-00115101645ADDAA101000095AA206000091AG10000GA1999+030485035GA2999+076205025GD12015+0300099GD21035+0750093GF103015999001999999071991KA1999N-00441MA1101631100885MD1710141+9999MW1001REMAWY012714 1078 24?EQDN01 00000JPWTH 0QNNE81 0 00201E81 0 00104G21U0 99999H11 0 23100H11 0 37250K21 0 00030L21 0 07500M11 0 29790N21 0 00000Q21 0 10164S21 0 00038V11 0 00401X21 0 34008
024172694024232198601041900C+44917-123000SAO  +0060SLE  V0203505N005252200059N1200005N1+00505-00065101505ADDAA101000095AG10999GD12995+0300099GD23995+0750093GF107025999999999999999999MA1101491100755MW1001EQDN01 00000JPWTH 0QNNE81 0 00299E81 0 00399G21U0 99999K21 0 00031L21 0 07500M11 0 29750N21 0 00000Q21 0 10150S21 0 00041V11 0 00902X21 0 35010
026472694024232198601042000C+44917-123000SAO  +0060SLE  V0203405N003650762059N1200005N1+00615-00115101365ADDAA101000095AG10999GD12995+0300099GD24995+0750099GF108055999999999999999999MA1101351100615MW1001REMAWY014THN SPTS IOVC?EQDN01 00000JPWTH 0QNNE81 0 00299E81 0 00699G21 0 00250K21 0 00030L21 0 07500M11 0 29710N21 0 00000Q21 0 10136S21 0 00043V11 0 01006X21 0 34007
032772694024232198601042100C+44917-123000SAO  +0060SLE  V0203405N005252200059N1200005N1+00785-00065101195ADDAA101000095AG10000GA1999+027435035GA2999+076205025GD12025+0270099GD24085+0750093GF108035999001999999071991MA1101191100445MD1810441+9999MW1001REMAWY009844 1077?EQDN01 00000JPWTH 0QNNE81 0 00203E81 0 00510G21U0 99999H11 0 23090H11 0 37250K21 0 00031L21 0 07500M11 0 29660N21 0 00000Q21 0 10119S21 0 00046V11 0 01004X21 0 34010
024072694024232198601042200C+44917-123000SAO  +0060SLE  V0203405N00415018295MN1200005N1+00725-00065101095ADDAA101000095AG10999GD14995+0180099GF108075999999999999999999MA1101081100345MW1001REMAWY016HIR CLDS VSBL N?EQDN01 00000JPWTH 0QNNE81 0 00699G21 0 00060K21 0 00031L21 0 07500M11 0 29630N21 0 00000Q21 0 10109S21 0 00045V11 0 01009X21 0 34008
025572694024232198601042300C+44917-123000SAO  +0060SLE  V0202805N002650182959N0064005N1+00565+00005101095ADDAA101001595AG10999GD12995+0060099GD24995+0180099GF108085999999999999999999MA1101081100345MW1615REMAWY005RB08?EQDN01 02000JPWTH 0QNNE81 0 00299E81 0 00699G21 0 00060K21 0 00032L21 0 00400M11 0 29630N21 0 02000Q21 0 10109S21 0 00042V11 0 01010X21 0 28005
033172694024232198601050000C+44917-123000SAO  +0060SLE  V0203305N00365018295MN0064005N1+00505+00005101095ADDAA101001595AA206003091AG10007GA1999+018295055GD14085+0180099GF108085999999999999021999KA1999M+00831MA1101081100345MD1610101+9999MW1615REMAWY02661011 102/ 47 RADAT 81091?EQDQ01+000002SCOLCGN01 02000JPWTH 0QNNE81 0 00610G21 0 00060H11 0 22060K21 0 00032L21 0 00400M11 0 29630N21 0 02000Q21 0 10109S21 0 00041V11 0 01010X21 0 33007
022972694024232198601050100C+44917-123000SAO  +0060SLE  V0203405N00415018295MN0160005N1+00395-00065101055ADDAA101000595AG10999GD14995+0180099GF108085999999999999999999MA1101051100305MW1001REMAWY005RE45?EQDN01 00000JPWTH 0QNNE81 0 00699G21 0 00060K21 0 00031L21 0 01000M11 0 29620N21 0 00000Q21 0 10105S21 0 00039V11 0 01010X21 0 34008
021572694024232198601050200C+44917-123000SAO  +0060SLE  V0203305N00415018295MN0160005N1+00395+00005101025ADDAA101000095AG10999GD14995+0180099GF108085999999999999999999MA1101021100275MW1001EQDN01 00000JPWTH 0QNNE81 0 00699G21 0 00060K21 0 00032L21 0 01000M11 0 29610N21 0 00000Q21 0 10102S21 0 00039V11 0 01010X21 0 33008
0087726940242321986010502274+44917-123000SAOSP+0061SLE  V0203301N005110180019N0160001N1+99999+99999999999ADDAG10999GD12991+0018099GD24991+0180099GF108991999999999999999999MA1100951999999MW1001
039372694024232198601050300C+44917-123000SAO  +0060SLE  V0203005N004150182959N0160005N1+00335+00005100985ADDAA101000095AA299001091AG10000GA1999+001835135GA2999+003355135GA3999+018295065GD12015+0018099GD22015+0033099GD34085+0180099GF108085999051999999999999MA1100981100245MD1710101+9999MW1001REMAWY01171003 15//?EQDN01 00000JPWTH 0QNNE81 0 00201E81 0 00201E81 0 00610G21 0 00060H11 0 13006H11 0 13011H11 0 15060K21 0 00032L21 0 01000M11 0 29600N21 0 00000Q21 0 10098S21 0 00038V11 0 01010X21 0 30008
026772694024232198601050400C+44917-123000SAO  +0060SLE  V0203105N002650137259N0160005N1+00395+00005101055ADDAA101000095AG10999GD12995+0018099GD22995+0042099GD34995+0135099GF108085999999999999999999MA1101051100305MW1001EQDN01 00000JPWTH 0QNNE81 0 00299E81 0 00299E81 0 00699G21 0 00045K21 0 00032L21 0 01000M11 0 29620N21 0 00000Q21 0 10105S21 0 00039V11 0 01010X21 0 31005
022972694024232198601050500C+44917-123000SAO  +0060SLE  V0203105N00265015245MN0160005N1+00395+00225101085ADDAA101000595AG10999GD14995+0150099GF108085999999999999999999MA1101081100345MW1805REMAWY005RB20?EQDN01 02300JPWTH 0QNNE81 0 00699G21 0 00050K21 0 00036L21 0 01000M11 0 29630N21 0 02300Q21 0 10108S21 0 00039V11 0 01010X21 0 31005
035672694024232198601050600C+44917-123000SAO  +0060SLE  V0200205N002650152459N0160005N1+00395+00285101015ADDAA101001095AA206002091AG10004GA1999+001835135GA2999+015245065GD12025+0018099GD24085+0150099GF108085999051999999999999KA1999M+00831MA1101021100275MD1810031+9999MW1805REMAWY01480307 15// 47?EQDN01 02300JPWTH 0QNNE81 0 00202E81 0 00610G21 0 00050H11 0 13006H11 0 15050K21 0 00037L21 0 01000M11 0 29610N21 0 02300Q21 0 10101S21 0 00039V11 0 01010X21 0 02005
024172694024232198601050700C+44917-123000SAO  +0060SLE  V0200205N002150182959N0192005N1+00335+00285101005ADDAA101000595AG10999GD12995+0012099GD24995+0180099GF108085999999999999999999MA1101021100255MW1615EQDN01 02000JPWTH 0QNNE81 0 00299E81 0 00699G21 0 00060K21 0 00037L21 0 01200M11 0 29605N21 0 02000Q21 0 10100S21 0 00038V11 0 01010X21 0 02004
0087726940242321986010507364+44917-123000SAOSP+0061SLE  V0209991C00001001501MN0112001N1+99999+99999999999ADDAG10999GD13991+0015099GD24991+0180099GF108991999999999999999999MA1100981999999MW1611
024172694024232198601050800C+44917-123000SAO  +0060SLE  V0203005N00215001525MN0112005N1+00335+00285100985ADDAA101001095AG10999GD13995+0015099GD24995+0180099GF108085999999999999999999MA1100981100245MW1615EQDN01 02000JPWTH 0QNNE81 0 00499E81 0 00699G21 0 00005K21 0 00037L21 0 00700M11 0 29600N21 0 02000Q21 0 10098S21 0 00038V11 0 01010X21 0 30004
028772694024232198601050900C+44917-123000SAO  +0060SLE  V0202405N00315001525MN0080005N1+00335+00285101045ADDAA101000895AA299003091AG10007GA1999+001525135GD14085+0015099GF108085999071999999999999MA1101051100295MD1310021+9999MW1615REMAWY01130211 17//?EQDN01 02000JPWTH 0QNNE81 0 00610G21 0 00005H11 0 13005K21 0 00037L21 0 00500M11 0 29615N21 0 02000Q21 0 10104S21 0 00038V11 0 01010X21 0 24006
0087726940242321986010509164+44917-123000SAOSP+0061SLE  V0201601N002110150019N0080001N1+99999+99999999999ADDAG10007GD12991+0021099GD24991+0150099GF108991999999999999999999MA1101051999999MW1611
026772694024232198601051000C+44917-123000SAO  +0060SLE  V0201505N002150198159N0080005N1+00335+00285101005ADDAA101000895AG10999GD12995+0024099GD22995+0135099GD34995+0180099GF108085999999999999999999MA1101021100255MW1615EQDN01 02000JPWTH 0QNNE81 0 00299E81 0 00299E81 0 00699G21 0 00065K21 0 00037L21 0 00500M11 0 29605N21 0 02000Q21 0 10100S21 0 00038V11 0 01010X21 0 15004
027372694024232198601051100C+44917-123000SAO  +0060SLE  V0201505N003150134159N0032005N1+00335+00285101085ADDAA101001395AG10999GD12995+0015099GD22995+0096099GD34995+0132099GF108085999999999999999999MA1101081100345MW1455MW2615EQDN01 02070JPWTH 0QNNE81 0 00299E81 0 00299E81 0 00699G21 0 00044K21 0 00037L21 0 00200M11 0 29630N21 0 02070Q21 0 10108S21 0 00038V11 0 01010X21 0 15006
0108726940242321986010511244+44917-123000SAOSP+0061SLE  V0202101N002110120019N0048001N1+99999+99999999999ADDAG10999GD12991+0015099GD22991+0096099GD34991+0120099GF108991999999999999999999MA1101081999999MW1451MW2611
050772694024232198601051200C+44917-123000SAO  +0060SLE  V0201105N004150097559N0080005N1+00395+00335101085ADDAA101000395AA206005091AA324010091AG10007GA1999+001225135GA2999+003355135GA3999+009755065GA4999+012195065GD12035+0012099GD22015+0033099GD33025+0096099GD44025+0120099GF108085999051999999999999KA1999N+00331MA1101081100345MD1110051+9999MW1455MW2615REMAWY04210520      ?    15// 38 20038 RADAT 98068?EQDN01 02070JPWTH 0QNNE81 0 00204E81 0 00201E81 0 00402E81 0 00603G21 0 00032H11 0 13004H11 0 13011H11 0 15032H11 0 15040K21 0 00038L21 0 00500M11 0 29630N21 0 02070Q21 0 10108S21 0 00039V11 0 01010X21 0 11008
0125726940242321986010512384+44917-123000SAOSP+0061SLE  V0203201N002110021019N0048001N1+99999+99999999999ADDAG10007GD12991+0012099GD23991+0021099GD34991+0096099GF108991999999999999999999MA1101081999999MW1451MW2611REMAWY008RE05B35?
026472694024232198601051300C+44917-123000SAO  +0060SLE  V0203205N002650100659N0032005N1+00395+00335101065ADDAA101000095AG10999GD12995+0021099GD24995+0099099GF108085999999999999999999MA1101081100325MW1455MW2615REMAWY008RE05B35?EQDN01 02070JPWTH 0QNNE81 0 00299E81 0 00699G21 0 00033K21 0 00038L21 0 00200M11 0 29625N21 0 02070Q21 0 10106S21 0 00039V11 0 01010X21 0 32005
0128726940242321986010513264+44917-123000SAOSP+0061SLE  V0203201N002610087019N0024001N1+99999+99999999999ADDAG10999GD12991+0009099GD22991+0021099GD34991+0087099GF108991999999999999999999MA1101081999999MW1451MW2511MW3611REMAWY005LB20?
029172694024232198601051400C+44917-123000SAO  +0060SLE  V0203205N003150009159N0024005N1+00395+00335101085ADDAA101000095AG10999GD12995+0003099GD23995+0009099GD34995+0054099GF108085999999999999999999MA1101081100345MW1455MW2515REMAWY009LB20RE28?EQDN01 03370JPWTH 0QNNE81 0 00299E81 0 00499E81 0 00699G21 0 00003K21 0 00038L21 0 00150M11 0 29630N21 0 03370Q21 0 10108S21 0 00039V11 0 01010X21 0 32006
0093726940242321986010514274+44917-123000SAOSP+0061SLE  V0203201N00211000601MN0024001N1+99999+99999999999ADDAG10999GD13991+0006099GD24991+0054099GF108991999999999999999999MA1101081999999MW1451MW2511
028172694024232198601051500C+44917-123000SAO  +0060SLE  V0203205N00215000615MN0024005N1+00335+00335101085ADDAA101000095AG10000GA1999+000615075GD14085+0006099GF108085999061999999999999MA1101081100345MD1510001+9999MW1455REMAWY016LE40 50000 16//?EQDN01 07000JPWTH 0QNNE81 0 00610G21 0 00002H11 0 16002K21 0 00038L21 0 00150M11 0 29630N21 0 07000Q21 0 10108S21 0 00038V11 0 01010X21 0 32004
0098726940242321986010515314+44917-123000SAOSP+0061SLE  V0203201N00151000301WN0016001N1+99999+99999999999ADDAG10000GD15991+0003099GF109991999999999999999999MA1101021999999MW1451REMAWY017R31VR60+ RB00E25?
026172694024232198601051600C+44917-123000SAO  +0060SLE  V0203205N00265000615WN0012005N1+00335+00335101045ADDAA101000095AG10999ED131U18289GD15995+0006099GF108085999999999999999999MA1101051100305MW1455MW2615REMAWY020R31VR60  RB00E25B40?EQDN01 02070JPWTH 0QNNE81 0 00799G21 0 00002K21 0 00038L21 0 00075M11 0 29620N21 0 02070Q21 0 10104S21 0 00038V11 0 01010X21 0 32005
025072694024232198601051700C+44917-123000SAO  +0060SLE  V0209995900005000915WN0016005N1+00395+00335101005ADDAA101002395AG10999ED131U18289GD15995+0009099GF108085999999999999999999MA1101081100345MW1455MW2615REMAWY009R31VR60+?EQDN01 02070JPWTH 0QNNE81 0 00799G21 0 00003K21 0 00038L21 0 00100M11 0 29630N21 0 02070Q21 0 10100S21 0 00039V11 0 01010X21 0 00000
0107726940242321986010517524+44917-123000SAOSP+0061SLE  V0209991C00001000601WN0016001N1+99999+99999999999ADDAG10999ED131U18289GD15991+0006099GF109991999999999999999999MA1101051999999MW1451MW2611REMAWY009R31VR60+?
031572694024232198601051800C+44917-123000SAO  +0060SLE  V0201205N00155001225WN0024005N1+00395+00395101055ADDAA101001895AA206004091AG10007GA1999+001225105GD15085+0012099GF108085999999999999999999KA1999N+00331MA1101051100305MD1510031+9999MW1455MW2615REMAWY020R31VRR60+/ 50316 38?EQDN01 02070JPWTH 0QNNE81 0 00710G21 0 00004H11 0 45004K21 0 00039L21 0 00150M11 0 29620N21 0 02070Q21 0 10105S21 0 00039V11 0 01010X21 0 12003
025072694024232198601051900C+44917-123000SAO  +0060SLE  V0201205N00155000615WN0016005N1+00445+00395100985ADDAA101001595AG10999ED131U18289GD15995+0006099GF108085999999999999999999MA1100981100245MW1455MW2615REMAWY009R31VR60+?EQDN01 02070JPWTH 0QNNE81 0 00799G21 0 00002K21 0 00039L21 0 00100M11 0 29600N21 0 02070Q21 0 10098S21 0 00040V11 0 01010X21 0 12003
0125726940242321986010519074+44917-123000SAOSP+0061SLE  V0203001N002110075019N0016001N1+99999+99999999999ADDAG10999ED131U18289GD16991+0001599GD24991+0075099GF108991999999999999999999MA1100981999999MW1451MW2611REMAWY012R31VR60+ F6?
0110726940242321986010519194+44917-123000SAOSP+0061SLE  V0203601N00211000601WN0012001N1+99999+99999999999ADDAG10999ED131U13719GD15991+0006099GF109991999999999999999999MA1100911999999MW1451MW2611REMAWY012R31VR45V60+?
025672694024232198601052000C+44917-123000SAO  +0060SLE  V0201205N00265000615WN0008005N1+00615+00565100725ADDAA101001395AG10999ED131U16769GD15995+0006099GF108085999999999999999999MA1100711099975MW1455MW2615REMAWY015R31VR55 PRESFR?EQDN01 02070JPWTH 0QNNE81 0 00799G21 0 00002K21 0 00042L21 0 00050M11 0 29520N21 0 02070Q21 0 10072S21 0 00043V11 0 01010X21 0 12005
0094726940242321986010520314+44917-123000SAOSP+0061SLE  V0201901N00671001201WN0032001N1+99999+99999999999ADDAG10999GD15991+0012099GF109991999999999999999999MA1100911999999MW1451MW2611REMAWY007PRESRR?
0093726940242321986010520404+44917-123000SAOSP+0061SLE  V0201701N00621001201MN0064001N1+99999+99999999999ADDAG10999GD13991+0012099GD24991+0045099GF108991999999999999999999MA1100881999999MW1451MW2611
042972694024232198601052100C+44917-123000SAO  +0060SLE  V0202005N008250036659N0080005N1+01065+00945100885ADDAA101001895AA299005091AG10007GA1999+001225135GA2999+003665065GA3999+009145065GD12025+0012099GD23055+0036099GD34025+0090099GF108085999051999999999999MA1100881100145MD1610171+9999MW1455MW2615OC101131REMAWY033PRESRR/          ?    61718 15//?EQDN01 02070JPWTH 0QNNE81 0 00202E81 0 00406E81 0 00602G21 0 00012H11 0 13004H11 0 15012H11 0 15030K21 0 00049L21 0 00500M11 0 29570N21 0 02070Q21 0 10088S21 0 00051V11 0 01010X21 0 20016
0102726940242321986010521314+44917-123000SAOSP+0061SLE  V0201901N007212200019N0112001N1+99999+99999999999ADDAG10000GD12991+0036099GD22991+0078099GD32991+0105099GF102991999999999999999999MA1100951999999MW1001
026572694024232198601052200C+44917-123000SAO  +0060SLE  V0201805N007750097559N0480005N1+01175+00945100985ADDAA101000095AG10999GD12995+0036099GD23995+0096099GF107075999999999999999999MA1100981100245MW1001REMAWY015BKN V OVC RE03?EQDN01 00000JPWTH 0QNNE81 0 00299E81 0 00499G21 0 00032K21 0 00049L21 0 03000M11 0 29600N21 0 00000Q21 0 10098S21 0 00053V11 0 00909X21 0 18015
0106726940242321986010522024+44917-123000SAOSP+0061SLE  V0202001N00621005401MN0240001N1+99999+99999999999ADDAG10999GD13991+0054099GD24991+0096099GF108991999999999999999999MA1101021999999MW1611REMAWY010R VRY LGT?
027972694024232198601052300C+44917-123000SAO  +0060SLE  V0202405N00725005185MN0160005N1+01065+00725101155ADDAA101000395AG10999GD13995+0051099GD23995+0105099GF106065999999999999999999MA1101151100415MW1611MW2805OC101341REMAWY015RB00 R VRY LGT?EQDN01 02300JPWTH 0QNNE81 0 00499E81 0 00499G21 0 00017K21 0 00045L21 0 01000M11 0 29650N21 0 02300Q21 0 10115S21 0 00051V11 0 00707X21 0 24014