027872694024232198601010000C+44917-123000SAO  +0060SLE  V0201501N00311002101MN0032001N1+00391+00001101991ADDAA101000095AA206999929AG10001GA1999+002135135GA2999+005795055GD13991+0021099GD24991+0057099GF108991999071999999021999KA1999M+00391MA1101961999999MD1710141+9999MW1455MW2515REMAWY040LB30 71400 172/ 39     ?    RADAT 98035?EQDN01 03370JPWTH 0QNNH11 0 13007H11 0 22019N21 0 03370
014572694024232201901010100C+44917-123000SAO  +0060SLE  V0203101N00151002101MN0032001N1+00331-00211101951ADDAA101000095AG10999GD13991+0021099GD24991+0057099GF108991999999999999999999MA1101931999999MW1455REMAWY005LE15?EQDN01 07000JPWTH 0QNNN21 0 07000
014672694024232201901010200C+44917-123000SAO  +0060SLE  V0201501N003610075019N0032001N1+00391-00051101881ADDAA101000095AG10999GD12991+0021099GD23991+0075099GD34991+0210099GF108991999999999999999999MA1101861999999MW1455EQDN01 07000JPWTH 0QNNN21 0 07000
0102726940242322019010102124+44917-123000SAOSP+0061SLE  V0201801N003110210019N0048001N1+99999+99999999999ADDAG10999GD12991+0021099GD22991+0078099GD34991+0210099GF108991999999999999999999MA1101861999999MW1451
023072694024232201901010300C+44917-123000SAO  +0060SLE  V0201801N005710210019N0080001N1+00441-00101101831ADDAA101000095AG10007GA1999+007925065GA2999+021345045GD12991+0078099GD24991+0210099GF108991999051999999021999MA1101831999999MD1710151+9999MW1455MW2615REMAWY016RB45 71500 152/?EQDN01 02070JPWTH 0QNNH11 0 15026H11 0 21070N21 0 02070
013172694024232201901010400C+44917-123000SAO  +0060SLE  V0201701N004110150019N0160001N1+00611-00051101781ADDAA101000095AG10999GD12991+0078099GD24991+0150099GF108991999999999999999999MA1101761999999MW1615EQDN01 02000JPWTH 0QNNN21 0 02000
016072694024232201901010500C+44917-123000SAO  +0060SLE  V0201601N004610132019N0240001N1+00611-00051101701ADDAA101000095AG10999GD12991+0078099GD23991+0132099GD34991+0210099GF108991999999999999999999MA1101691999999MW1001REMAWY005RE25?EQDN01 00000JPWTH 0QNNN21 0 00000
019072694024232201901010600D+44917-123000SAO  +0061SLE  V0201601N005710141019N0112001N1+00611-00051101631ADDAA101000095AA206999929AG10007GD12991+0033099GD22991+0075099GD34991+0141099GF108991999051999999999999KA1999M+00611MA1101631999999MD1710191+9999MW1611REMAWY030RB35 71900       ?    15// 43?
011372694024232201901010700D+44917-123000SAO  +0061SLE  V0201601N006210141019N0112001N1+00611-00051101501ADDAA101000395AG10999GD12991+0033099GD22991+0075099GD34991+0141099GF108991999999999999999999MA1101491999999MW1611
011372694024232201901010800D+44917-123000SAO  +0061SLE  V0201501N006210054019N0112001N1+00611-00051101401ADDAA101000895AG10999GD12991+0030099GD23991+0054099GD34991+0120099GF108991999999999999999999MA1101391999999MW1611
007972694024232201901010800E+44917-123000SAO  +0060SLE  V02099999999999999999N999999999+99999+99999999999ADDAA101000895GD14995+9999999MW1615EQDN01 02000JPWTH 0QNNE81 0 00699N21 0 02000
028872694024232201901010900C+44917-123000SAO  +0060SLE  V0201705N006250057959N0112005N1+00725-00065101265ADDAA101000595AA299002091AG10000GD12025+0036099GD23035+0057099GD34025+0105099GF108085999071999999999999MA1101251100515MD1710371+9999MW1001REMAWY017RE45/ 73706 17//?QNNE81 0 00203E81 0 00404E81 0 00603G21 0 00019K21 0 00031L21 0 00700M11 0 29680Q21 0 10126S21 0 00045V11 0 01010X21 0 17012
024572694024232201901011000C+44917-123000SAO  +0060SLE  V0201705N007750085359N0160005N1+00785-00175101105ADDAA101000095AG10999GD12995+0054099GD23995+0084099GD34995+0180099GF108085999999999999999999MA1101081100345MW1001OC101031QNNE81 0 00299E81 0 00499E81 0 00699G21 0 00028K21 0 00029L21 0 01000M11 0 29630Q21 0 10110S21 0 00046V11 0 01010X21 0 17015
029072694024232201901011100C+44917-123000SAO  +0060SLE  V0201705N008850085359N0160005N1+00835+00726100985ADDAA101000395AG10999GD12995+0033099GD23995+0084099GD34995+0150099GF108085999999999999999999MA1100981100245MW1611OC101241REMAWY036RB05 BKN V       ?    OVC R VRY LGT?QNNE81 0 00299E81 0 00499E81 0 00699G21 0 00028K21 0 00045L21 0 01000M11 0 29600Q21 0 10098S21 0 00047V11 0 01010X21 0 17017
031572694024232201901011200C+44917-123000SAO  +0060SLE  V0201805N007750076259N0112005N1+00895+00675100985ADDAA101002895AA206005091AA324005091AG10007GD12025+0030099GD24085+0075099GF108085999071999999021999KA1999N+00331MA1100981100245MD1610271+9999MW1611REMAWY04662718 172/ 38 20018          ?    RADAT 98057?QNNE81 0 00202E81 0 00610G21 0 00025K21 0 00044L21 0 00700M11 0 29600Q21 0 10098S21 0 00048V11 0 01010X21 0 18015
021172694024232201901011300C+44917-123000SAO  +0060SLE  V0201905N010850079259N0112005N1+00835+00615101025ADDAA101003095AG10999GD12995+0030099GD24995+0078099GF108085999999999999999999MA1101021100275MW1611QNNE81 0 00299E81 0 00699G21 0 00026K21 0 00043L21 0 00700M11 0 29610Q21 0 10102S21 0 00047V11 0 01010X21 0 19021
0121726940242322019010113254+44917-123000SAOSP+0061SLE  V0202101N006710120019N0240001N1+99999+99999999999ADDAG10999GD12991+0075099GD23991+0120099GD34991+0210099GF108991999999999999999999MA1101081999999MW1611REMAWY010R VRY LGT?
021172694024232201901011400C+44917-123000SAO  +0060SLE  V0201905N007750106759N0160005N1+00835+00615101155ADDAA101001395AG10999GD12995+0078099GD24995+0105099GF108085999999999999999999MA1101151100415MW1611QNNE81 0 00299E81 0 00699G21 0 00035K21 0 00043L21 0 01000M11 0 29650Q21 0 10115S21 0 00047V11 0 01010X21 0 19015
026472694024232201901011500C+44917-123000SAO  +0060SLE  V0201905N006250121959N0160005N1+00835+00675101335ADDAA101001395AA299006091AG10007GD12025+0078099GD24085+0120099GF108085999071999999021999MA1101321100585MD1310341+9999MW1611OC100981REMAWY01133422 172/?QNNE81 0 00203E81 0 00610G21 0 00040K21 0 00044L21 0 01000M11 0 29700Q21 0 10133S21 0 00047V11 0 01010X21 0 19012
029572694024232201901011600C+44917-123000SAO  +0060SLE  V0201105N003652200059N0400005N1+00785+00615101545ADDAA101000095AG10999GD12995+0030099GD22995+0069099GD32995+0105099GD42995+0300099GF103035999999999999999999MA1101521100785MW1001REMAWY023RE12       ?    PRESRR?QNNE81 0 00299E81 0 00299E81 0 00299E81 0 00299G21U0 99999K21 0 00043L21 0 02500M11 0 29760Q21 0 10154S21 0 00046V11 0 00404X21 0 11007
019872694024232201901011700E+44917-123000SAO  +0060SLE  V0201305N005250091459N056000599+00725+00615101745ADDAA101000095GD12995+9999999GD23995+9999999GF105055999999999999999999MA1999999100985QNNE81 0 00299E81 0 00499G21 0 00030K21 0 00043L21 0 03500M11 0 29820Q21 0 10174S21 0 00045V11 0 00606X21 0 13010
027272694024232201901011800C+44917-123000SAO  +0060SLE  V0201605N005250091459N0560005N1+00725+00565101895ADDAA101000095AA206006091AG10000GD12025+0045099GD23035+0090099GF105045999051999999001991KA1999N+00171MA1101861101125MD1110541+9999MW1001REMAWY01415422 1500 35?QNNE81 0 00202E81 0 00404G21 0 00030K21 0 00042L21 0 03500M11 0 29860Q21 0 10189S21 0 00045V11 0 00605X21 0 16010
021172694024232201901011900C+44917-123000SAO  +0060SLE  V0202505N004650091459N0560005N1+00945+00445102015ADDAA101000095AG10999GD12995+0045099GD23995+0090099GF106065999999999999999999MA1102001101255MW1001QNNE81 0 00299E81 0 00499G21 0 00030K21 0 00040L21 0 03500M11 0 29900Q21 0 10201S21 0 00049V11 0 00807X21 0 25009
022672694024232201901012000C+44917-123000SAO  +0060SLE  V0202805N004650091459N0320005N1+00945+00395102085ADDAA101000095AG10999GD12995+0045099GD23995+0090099GF106065999999999999999999MA1102071101325MW1001REMAWY006RWU E?QNNE81 0 00299E81 0 00499G21 0 00030K21 0 00039L21 0 02000M11 0 29920Q21 0 10208S21 0 00049V11 0 00807X21 0 28009
023872694024232201901012100C+44917-123000SAO  +0060SLE  V0202205N00775010675MN0320005N1+01065+00395102135ADDAA101000095AG10000GD13055+0105099GF105045999021999999001991MA1102071101355MD1110241+9999MW1001REMAWY030MDT CU N AND E RWU E 124 1200?QNNE81 0 00406G21 0 00035K21 0 00039L21 0 02000M11 0 29930Q21 0 10213S21 0 00051V11 0 00605X21 0 22015
020772694024232201901012200C+44917-123000SAO  +0060SLE  V0202405N005752200059N0320005N1+01065+00175102165ADDAA101000095AG10999GD12995+0105099GF102025999999999999999999MA1102131101395MW1001REMAWY013MDT CU RWU E?QNNE81 0 00299G21U0 99999K21 0 00035L21 0 02000M11 0 29940Q21 0 10216S21 0 00051V11 0 00303X21 0 24011
021172694024232201901012300C+44917-123000SAO  +0060SLE  V0202105N004650762059N0320005N1+01005+00175102255ADDAA101000095AG10999GD12995+0120099GD23995+0750099GF106055999999999999999999MA1102241101495MW1001QNNE81 0 00299E81 0 00499G21 0 00250K21 0 00035L21 0 02000M11 0 29970Q21 0 10225S21 0 00050V11 0 00806X21 0 21009